:020000040000FA
:04000000FEEF7FF0A0
:10FE8E0012001200120003011E8F120003C501F5AD
:10FE9E0004C502F5120071EC7FF04AEC7FF0FFD73B
:10FEAE00000EF86E000152EF7FF0020E0001D56FCA
:10FEBE00B3EC7FF0D96BA9EF7FF0620E0001AD6F4E
:10FECE00700EAE6FAF6BB36B020EB16FB26BB06BE9
:10FEDE00AC6B120090EC7FF064EC7FF07FEC7FF067
:10FEEE005CEC7FF0A4EC7FF0B9EC7FF0CEEF7FF00E
:10FEFE00040E0301206F1F6B216B0B0E1D6F1C6B0D
:10FF0E00000E036A046A4DEC7FF0B696200E1E6F4B
:10FF1E00200CD69AB490D680000E036A046A47EC81
:10FF2E007FF0B990D682000E036A046A48EC7FF027
:10FF3E00BD90D684036A046A000CD56B0DD8230ECF
:10FF4E00D96F00D0DA6BDB6B020EDC6F080EDD6F43
:10FF5E00DE6BDF6BD46B1200850ED66FD76B100E77
:10FF6E00D86F100C010ED56F820ED66F810ED76F23
:10FF7E00D86BD96B240EDA6F220EDB6FDC6B140E8E
:10FF8E00DD6F440EDE6F100EDF6FD46B1200BE6A93
:10FF9E00BF6AC06A3F0EC66EF00EC76EFD0EC86E0B
:10FFAE000401006B086B106B016B096B010E116F76
:10FFBE00026B0A6B126B370E036FF00E0B6F136929
:10FFCE003F0E046FF00E0C6F1469100E0201616F7C
:10FFDE00050E486F010E126F0401056B066B076B61
:10FFEE000D6B0E6B0F6B156B166B176B120057EFBD
:02FFFE007FF092
:020000040020DA
:10000000FF0FFF0FFF0FFF0FFF0FFF0FFF0FFF0F80
:10001000FF0FFF0FFF0FFF0FFF0FFF0FFF0FFF0F70
:020000040030CA
:0A0000008CFFFFFF9FFFFFFFFFFFD3
:00000001FF
