:020000040000FA
:040000000DEF00F010
:04000800BCEF00F059
:10001800FF00A7EF00F0BE6ABF6AC06A3F0EC66E57
:10002800F00EC76EFD0EC86E0401006B086B106BF6
:10003800016B096B010E116F026B0A6B126B370EA5
:10004800036FF00E0B6F13693F0E046FF00E0C6F09
:100058001469100E0201616F050E486F010E126FD0
:100068000401056B066B076B0D6B0E6B0F6B156B45
:10007800166B176B1200010ED56F810ED76FD86BF8
:10008800D96B240EDA6F220EDB6FDC6B140EDD6F7A
:10009800440EDE6F100EDF6FD46B820ED66F820CAB
:1000A800D69AB490D680000E036A046AD1EC00F0A8
:1000B800B990D682000E036A046AD0EC00F0BD90B5
:1000C800D684036A046A000CD56BD76B100ED86F00
:1000D800230ED96F00D0DA6BDB6B020EDC6F080ED3
:1000E800DD6FDE6BDF6BD46B850ED66F850C040E6F
:1000F8000301206F1F6B216B0B0E1D6F1C6B000E15
:10010800036A046AC7EC00F0B696200E1E6F200C36
:1001180054EC00F09AEC00F07BEC00F0B3EC00F04B
:1001280068EC00F03FEC00F00FEF00F0620E000109
:10013800AD6F700EAE6FAF6BB36B020EB16FB26B7B
:10014800B06BAC6B12000401080E5D6F000E5E6FA1
:10015800000E5F6F000EF86E0001C2EF00F0020E95
:100168000001D56FD76B100ED86FD96B6FEF00F009
:10017800A8BEB3AE1100D2EC00F011008CEC00F078
:10018800CCEC00F0FFD703C501F504C502F5120059
:0E01980003011E8F120012001200120012004E
:020000040020DA
:10000000FF0FFF0FFF0FFF0FFF0FFF0FFF0FFF0F80
:10001000FF0FFF0FFF0FFF0FFF0FFF0FFF0FFF0F70
:020000040030CA
:0A0000008CFFF7FF9FFFFFFFFFFFDB
:00000001FF
