:020000040000FA
:04000000FEEF7FF0A0
:10FF2E00AFEC7FF0FFD7000197EF7FF00001636B1E
:10FF3E00646B656B666B676B686B1200620E00011B
:10FF4E00AD6FAF6BB36B020EB16FB06BAC6B1200DB
:10FF5E009DEC7FF0D7EC7FF0A5EC7FF0C6EC7FF048
:10FF6E00B9EF7FF0040E0301206F130E1F6F216B8C
:10FF7E000B0E1D6F1C6BB696A00E1E6FA00CD56BD4
:10FF8E008A0ED76F100ED86FD96FDA6FDB6F020E35
:10FF9E00DC6FDD6BDE6BDF6BD46B860ED66F860C83
:10FFAE00BE6ABF6AC06A3F0EC66EF00EC76EFD0E09
:10FFBE00C86EFC0E0401106FF00E086F370E006F46
:10FFCE00096B016B010E116F026B0A6B126B370E10
:10FFDE00036FF00E0B6F13693F0E046FF00E0C6F74
:10FFEE001469010E0201126F100E486F100C9AEF79
:02FFFE007FF092
:020000040020DA
:10000000FF0FFF0FFF0FFF0FFF0FFF0FFF0FFF0F80
:10001000FF0FFF0FFF0FFF0FFF0FFF0FFF0FFF0F70
:020000040030CA
:0A000000ECFFF7FF9FFFFFFFFFFF7B
:00000001FF
