:020000040000FA
:040000000DEF00F010
:0400080098EF00F07D
:10001800FF0076EF00F0BE6ABF6AC06A3F0EC66E88
:10002800F00EC76EFD0EC86E0401006B086B106BF6
:10003800016B096B010E116F026B0A6B126B370EA5
:10004800036FF00E0B6F13693F0E046FF00E0C6F09
:100058001469100E0201486F010E126F0401056B3E
:10006800066B076B0D6B0E6B0F6B156B166B176BB7
:100078001200D69AB490D680000E036A046AADECDA
:1000880000F0B990D682000E036A046AACEC00F066
:10009800BD90D684036A046A000C0001D56B8A0EF1
:1000A800D76F100ED86F230ED96FDA6BDB6B020E89
:1000B800DC6FDD6BDE6BDF6BD46B860ED66F860C68
:1000C800040E0301206F130E1F6F216B0B0E1D6FA3
:1000D8001C6B000E036A046AA3EC00F0B696200EAF
:1000E8001E6F200C0401080E5D6F000E5E6F000E7F
:1000F8005F6F000EF86E00019EEF00F0620EAD6FAC
:10010800700EAE6FAF6BB36B020EB16FB26BB06BAC
:10011800AC6B120051EC00F03DEC00F082EC00F00A
:1001280064EC00F00FEF00F0A8BEB3AE1100AEEC27
:1001380000F011008EEC00F0A8EC00F0FFD703C52A
:1001480001F504C502F5120003011E8F120012000A
:060158001200120012006B
:020000040020DA
:10000000FF0FFF0FFF0FFF0FFF0FFF0FFF0FFF0F80
:10001000FF0FFF0FFF0FFF0FFF0FFF0FFF0FFF0F70
:020000040030CA
:0A0000008CFFF7FF9FFFFFFFFFFFDB
:00000001FF
