:020000040000FA
:040000000DEF00F010
:04000800A5EF0BF065
:06001800FF00C1EF0BF038
:1016000000FA16CE1700000000A617000000000E1A
:10161000BE6E000EBF6E000EC06E3F0EC66EF00EA8
:10162000C76EFD0EC86E000E0401006F000E086F3D
:10163000000E106F000E016F000E096F010E116F8A
:10164000000E026F000E0A6F000E126F370E036F4E
:10165000F00E0B6F13693F0E046FF00E0C6F1469E0
:10166000100E0201486F010E126F000E0401056F8B
:10167000000E066F000E076F000E0D6F000E0E6F4E
:10168000000E0F6F000E156F000E166F000E176F15
:101690001200D69AB490D680000E096E000E0A6E23
:1016A000E2EC0BF0B990D682000E096E000E0A6EC5
:1016B000DDEC0BF0BD90D684000E096E000E0A6EB4
:1016C000D8EC0BF01200000E0001D56F8A0ED76F18
:1016D000100ED86F230ED96F000EDA6F000EDB6F7D
:1016E000020EDC6F000EDD6F000EDE6F000EDF6F8E
:1016F000000ED46F860ED66F1200040E0301206F09
:10170000130E1F6F000E216F0B0E1D6F000E1C6F4E
:10171000000E096E000E0A6ED3EC0BF0B696200E8A
:1017200003011E6F1200620E0001AD6F700EAE6FEE
:10173000000EAF6F000EB36F020EB16F000EB26FEE
:10174000000EB06F000EAC6F1200A8AEAAEF0BF047
:10175000ACEF0BF0B5EF0BF0B3AEB1EF0BF0B3EFB6
:101760000BF0B5EF0BF0EAEC0BF0110063EC0BF0B3
:1017700049EC0BF093EC0BF07DEC0BF007EC0BF06D
:1017800012000401080E5D6F000E5E6F000E5F6FA9
:101790000001CBEF0BF0B6EC0BF0E7EC0BF0CFEF6A
:1017A0000BF00DEF00F009C501F50AC502F51200B6
:1017B00009C503F50AC504F5120009C505F50AC5F2
:1017C00006F5120009C507F50AC508F51200030160
:0617D0001E8F1200120042
:020000040020DA
:10000000FF0FFF0FFF0FFF0FFF0FFF0FFF0FFF0F80
:10001000FF0FFF0FFF0FFF0FFF0FFF0FFF0FFF0F70
:020000040030CA
:0A0000008CFFF7FF9FFFFFFFFFFFDB
:00000001FF
