:04000000FEEF7FF0A0
:101600000006170000000000007017000000000E28
:10161000BE6E000EBF6E000EC06E3F0EC66EF00EA8
:10162000C76EFD0EC86E370E0401006FF00E086F16
:10163000FC0E106F000E016F000E096F010E116F8E
:10164000000E0201876F000E866F000E0401026F0C
:10165000000E0A6F000E126F370E036FF00E0B6F45
:1016600013693F0E046FF00E0C6F1469100E020127
:10167000486F010E126F000E0401056F000E066F19
:10168000000E076F000E0D6F000E0E6F000E0F6F35
:10169000000E156F000E166F000E176F1200D69A0F
:1016A000B490D680000E096E000E0A6EC7EC0BF0E7
:1016B000B990D682000E096E000E0A6EC2EC0BF0D5
:1016C000BD90D684000E096E000E0A6EBDEC0BF0C4
:1016D0001200000E0001D56F8A0ED76F100ED86F62
:1016E000230ED96F000EDA6F000EDB6F020EDC6F77
:1016F000000EDD6F000EDE6F000EDF6F000ED46F88
:10170000860ED66F1200040E0301206F130E1F6F9A
:10171000000E216F0B0E1D6F000E1C6F000E096E68
:10172000000E0A6EB8EC0BF0B696A00E03011E6F09
:101730001200620E0001AD6F000EAF6F000EB36FAE
:10174000020EB16F000EB06F000EAC6F120099EC7C
:101750000BF007EC0BF069EC0BF083EC0BF04FECAB
:101760000BF01200A7EC0BF0B4EF0BF0FEEF7FF0E4
:1017700009C507F50AC508F5120009C501F50AC52E
:1017800002F5120009C503F50AC504F5120009C5E2
:0E17900005F50AC506F512000001B2EF0BF0D8
:04FFFC00CCEF0BF04B
:020000040020DA
:10000000FF0FFF0FFF0FFF0FFF0FFF0FFF0FFF0F80
:10001000FF0FFF0FFF0FFF0FFF0FFF0FFF0FFF0F70
:020000040030CA
:0A000000ECFFF7FF9FFFFFFFFFFF7B
:00000001FF
