:020000040000FA
:04000000FEEF7FF0A0
:1016000000FA169E17000000007017000000000E80
:10161000BE6E000EBF6E000EC06E3F0EC66EF00EA8
:10162000C76EFD0EC86E000E0401006F000E086F3D
:10163000000E106F000E016F000E096F010E116F8A
:10164000000E026F000E0A6F000E126F370E036F4E
:10165000F00E0B6F13693F0E046FF00E0C6F1469E0
:10166000100E0201486F010E126F000E0401056F8B
:10167000000E066F000E076F000E0D6F000E0E6F4E
:10168000000E0F6F000E156F000E166F000E176F15
:101690001200D69AB490D680000E096E000E0A6E23
:1016A000C7EC0BF0B990D682000E096E000E0A6EE0
:1016B000C2EC0BF0BD90D684000E096E000E0A6ECF
:1016C000BDEC0BF01200000E0001D56F860ED66F38
:1016D0008A0ED76F100ED86F230ED96F000EDA6FF7
:1016E000000EDB6F020EDC6F000EDD6F000EDE6F92
:1016F000000EDF6F000ED46F1200040E0301206F86
:10170000130E1F6F000E216F0B0E1D6F000E1C6F4E
:10171000000E096E000E0A6EB8EC0BF0B696200EA5
:1017200003011E6F1200620E0001AD6F700EAE6FEE
:10173000000EAF6F000EB36F020EB16F000EB26FEE
:10174000000EB06F000EAC6F120063EC0BF049ECB2
:101750000BF093EC0BF07DEC0BF007EC0BF01200B0
:10176000A5EC0BF0CFEC0BF0B4EF0BF0FEEF7FF03D
:1017700009C501F50AC502F5120009C503F50AC538
:1017800004F5120009C505F50AC506F5120009C5DC
:1017900007F50AC508F512000001B0EF0BF00301D0
:0417A0001E8F120086
:04FFFC00CCEF0BF04B
:020000040020DA
:10000000FF0FFF0FFF0FFF0FFF0FFF0FFF0FFF0F80
:10001000FF0FFF0FFF0FFF0FFF0FFF0FFF0FFF0F70
:020000040030CA
:0A0000008CFDFFFF9FFFFFFFFFFFD5
:00000001FF
