:04000000FEEF7FF0A0
:10160000006E17000000000000E017000000000E50
:10161000BE6E000EBF6E000EC06E3F0EC66EF00EA8
:10162000C76EFD0EC86E370E0401006FF00E086F16
:10163000FC0E106F000E016F000E096F010E116F8E
:10164000000E0201876F000E866F000E0401026F0C
:10165000000E0A6F000E126F370E036FF00E0B6F45
:1016600013693F0E046FF00E0C6F1469100E020127
:10167000616F010E126F000E0401056F000E066F00
:10168000000E076F000E0D6F000E0E6F000E0F6F35
:10169000000E156F000E166F000E176F1200D69A0F
:1016A000B490D680000E096E000E0A6EFFEC0BF0AF
:1016B000B990D682000E096E000E0A6EFAEC0BF09D
:1016C000BD90D684000E096E000E0A6EF5EC0BF08C
:1016D0001200020E0001D56F000ED76F100ED86FEA
:1016E000000ED96F000EDA6F000EDB6F020EDC6F9A
:1016F000080EDD6F000EDE6F000EDF6F000ED46F80
:10170000850ED66F1200010E0001D56F810ED76FC6
:10171000000ED86F000ED96F240EDA6F220EDB6F29
:10172000000EDC6F140EDD6F440EDE6F500EDF6FA7
:10173000000ED46F820ED66F1200000E0001D56F1E
:10174000000ED76F100ED86F230ED96F000EDA6F10
:10175000000EDB6F020EDC6F080EDD6F000EDE6F19
:10176000000EDF6F000ED46F850ED66F1200040ED0
:101770000301206F000E1F6F000E216F0B0E1D6FF7
:10178000000E1C6F000E096E000E0A6EF0EC0BF0DE
:10179000B696A00E03011E6F1200DCEC0BF007ECF6
:1017A0000BF09DEC0BF083EC0BF069EC0BF0B7EC5D
:1017B0000BF04FEC0BF01200620E0001AD6F000E4B
:1017C000AF6F000EB36F020EB16F000EB06F000E60
:1017D000AC6F1200CDEC0BF0ECEF0BF0FEEF7FF0F6
:1017E00009C501F50AC502F5120009C503F50AC5C8
:1017F00004F5120009C505F50AC506F5120009C56C
:0E18000007F50AC508F512000001EAEF0BF02B
:04FFFC0004EF0CF012
:020000040020DA
:10000000FF0FFF0FFF0FFF0FFF0FFF0FFF0FFF0F80
:10001000FF0FFF0FFF0FFF0FFF0FFF0FFF0FFF0F70
:10002000FF0FFF0FFF0FFF0FFF0FFF0FFF0FFF0F60
:10003000FF0FFF0FFF0FFF0FFF0FFF0FFF0FFF0F50
:020000040030CA
:09000000ECFFF7FF9FFFFFFFFF7B
:00000001FF
