:020000040000FA
:04000000FEEF7FF0A0
:10FEEA00A1EC7FF0FFD7000175EF7FF0020ED56F0E
:10FEFA00D76B100ED86FD96BB6EF7FF00001636B2A
:10FF0A00646B656B666B676B686B1200620E00014F
:10FF1A00AD6FAF6BB36B020EB16FB06BAC6B12000F
:10FF2A00040E0301206F1F6B216B0B0E1D6F1C6BE0
:10FF3A00B696A00E1E6FA00C83EC7FF0D7EC7FF074
:10FF4A008BEC7FF0AFEC7FF07BEC7FF0C2EC7FF0C4
:10FF5A0095EF7FF0D56BD76B100ED86F230ED96F44
:10FF6A0000D0DA6BDB6B020EDC6F080EDD6FDE6B26
:10FF7A00DF6BD46B850ED66F850C010ED56F810EA3
:10FF8A00D76FD86BD96B240EDA6F220EDB6FDC6B5E
:10FF9A00140EDD6F440EDE6F500EDF6FD46B820ECF
:10FFAA00D66F820CBE6ABF6AC06A3F0EC66EF00E7A
:10FFBA00C76EFD0EC86EFC0E0401106FF00E086FBE
:10FFCA00370E006F096B016B010E116F026B0A6B22
:10FFDA00126B370E036FF00E0B6F13693F0E046F2F
:10FFEA00F00E0C6F1469100E0201616F010E126F90
:06FFFA00010C78EF7FF01E
:020000040020DA
:10000000FF0FFF0FFF0FFF0FFF0FFF0FFF0FFF0F80
:10001000FF0FFF0FFF0FFF0FFF0FFF0FFF0FFF0F70
:020000040030CA
:0A000000ECFFF7FF9FFFFFFFFFFF7B
:00000001FF
