:020000040000FA
:040000000DEF00F010
:04000800C1EF0BF049
:06001800FF00DFEF0BF01A
:101600000032170A1800000000E217000000000E68
:10161000BE6E000EBF6E000EC06E3F0EC66EF00EA8
:10162000C76EFD0EC86E000E0401006F000E086F3D
:10163000000E106F000E016F000E096F010E116F8A
:10164000000E026F000E0A6F000E126F370E036F4E
:10165000F00E0B6F13693F0E046FF00E0C6F1469E0
:10166000100E0201616F050E486F010E126F000E21
:101670000401056F000E066F000E076F000E0D6F60
:10168000000E0E6F000E0F6F000E156F000E166F1E
:10169000000E176F1200D69AB490D680000E096E15
:1016A000000E0A6E00EC0CF0B990D682000E096EA6
:1016B000000E0A6EFBEC0BF0BD90D684000E096E96
:1016C000000E0A6EF6EC0BF01200020E0001D56F50
:1016D000020ED76F100ED86F000ED96F240EDA6F7E
:1016E000000EDB6F020EDC6F140EDD6F000EDE6F7E
:1016F000000EDF6F000ED46F850ED66F1200000E45
:101700000001D56F000ED76F100ED86F000ED96F85
:10171000000EDA6F000EDB6F020EDC6F080EDD6F5D
:10172000000EDE6F000EDF6F000ED46F850ED66FD9
:101730001200040E0301206F000E1F6F000E216FB8
:101740000B0E1D6F000E1C6F000E096E000E0A6E50
:10175000F1EC0BF0B696200E03011E6F1200620E24
:101760000001AD6F700EAE6F000EAF6F000EB36F65
:10177000020EB16F000EB26F000EB06F000EAC6FB4
:101780001200A8AEC6EF0BF0C8EF0BF0D1EF0BF0D4
:10179000B3AECDEF0BF0CFEF0BF0D1EF0BF008ECC9
:1017A0000CF011004BEC0BF0AFEC0BF099EC0BF0E4
:1017B00065EC0BF07FEC0BF007EC0BF01200040172
:1017C000080E5D6F000E5E6F000E5F6F0001E9EFA7
:1017D0000BF0D2EC0BF005EC0CF0EDEF0BF00DEF95
:1017E00000F009C501F50AC502F5120009C503F5A7
:1017F0000AC504F5120009C505F50AC506F512006B
:1018000009C507F50AC508F5120003011E8F12006D
:021810001200C4
:020000040020DA
:10000000FF0FFF0FFF0FFF0FFF0FFF0FFF0FFF0F80
:10001000FF0FFF0FFF0FFF0FFF0FFF0FFF0FFF0F70
:020000040030CA
:0A0000008CFFF7FF9FFFFFFFFFFFDB
:00000001FF
