:020000040000FA
:04000000FEEF7FF0A0
:10160000003217DA1700000000AC17000000000ECF
:10161000BE6E000EBF6E000EC06E3F0EC66EF00EA8
:10162000C76EFD0EC86E000E0401006F000E086F3D
:10163000000E106F000E016F000E096F010E116F8A
:10164000000E026F000E0A6F000E126F370E036F4E
:10165000F00E0B6F13693F0E046FF00E0C6F1469E0
:10166000100E0201616F050E486F010E126F000E21
:101670000401056F000E066F000E076F000E0D6F60
:10168000000E0E6F000E0F6F000E156F000E166F1E
:10169000000E176F1200D69AB490D680000E096E15
:1016A000000E0A6EE5EC0BF0B990D682000E096EC2
:1016B000000E0A6EE0EC0BF0BD90D684000E096EB1
:1016C000000E0A6EDBEC0BF01200020E0001D56F6B
:1016D000800ED66F020ED76F100ED86F000ED96F26
:1016E000240EDA6F000EDB6F020EDC6F140EDD6F5E
:1016F000000EDE6F000EDF6F000ED46F1200000EC2
:101700000001D56F850ED66F000ED76F100ED86F03
:10171000000ED96F000EDA6F000EDB6F020EDC6F69
:10172000080EDD6F000EDE6F000EDF6F000ED46F4F
:101730001200040E0301206F000E1F6F000E216FB8
:101740000B0E1D6F000E1C6F000E096E000E0A6E50
:10175000D6EC0BF0B696200E03011E6F1200620E3F
:101760000001AD6F700EAE6F000EAF6F000EB36F65
:10177000020EB16F000EB26F000EB06F000EAC6FB4
:1017800012004BEC0BF0AFEC0BF099EC0BF065ECAE
:101790000BF07FEC0BF007EC0BF01200C1EC0BF040
:1017A000EDEC0BF0D2EF0BF0FEEF7FF009C501F589
:1017B0000AC502F5120009C503F50AC504F51200B1
:1017C00009C505F50AC506F5120009C507F50AC5DC
:1017D00008F512000001CEEF0BF003011E8F12007E
:04FFFC00EAEF0BF02D
:020000040020DA
:10000000FF0FFF0FFF0FFF0FFF0FFF0FFF0FFF0F80
:10001000FF0FFF0FFF0FFF0FFF0FFF0FFF0FFF0F70
:020000040030CA
:0A000000FCFDFFFF9FFFFFFFFFFF65
:00000001FF
