:020000040000FA
:04000000FEEF7FF0A0
:10FEB20000015CEF7FF063EC7FF003005FEF7FF007
:10FEC200FEEF7FF07EEC7FF0CFEC7FF070EC7FF006
:10FED200B5EC7FF09BEC7FF08CEC7FF01200620EB1
:10FEE2000001AD6F000EAF6F000EB36F020EB16F67
:10FEF200000EB06F000EAC6F1200000E0001636FB7
:10FF0200000E646F000E656F000E666F000E676F65
:10FF1200000E686F1200040E0301206F000E1F6FA7
:10FF2200000E216F0B0E1D6F000E1C6FB696A00EF9
:10FF32001E6F1200000E0001D56F020ED76F100E59
:10FF4200D86F000ED96F240EDA6F000EDB6F020E2F
:10FF5200DC6F140EDD6F000EDE6F000EDF6F000E21
:10FF6200D46F850ED66F1200020E0001D56F000EFF
:10FF7200D76F100ED86F000ED96F000EDA6F000E19
:10FF8200DB6F020EDC6F080EDD6F000EDE6F000EFF
:10FF9200DF6F000ED46F850ED66F1200000EBE6E9C
:10FFA200000EBF6E000EC06E3F0EC66EF00EC76E24
:10FFB200FD0EC86EFC0E0401106FF00E086F370EB6
:10FFC200006F000E096F000E016F010E116F000E1F
:10FFD200026F000E0A6F000E126F370E036FF00EE3
:10FFE2000B6F13693F0E046FF00E0C6F1469100E45
:0EFFF2000201616F010E126F120059EF7FF0D5
:020000040020DA
:10000000FF0FFF0FFF0FFF0FFF0FFF0FFF0FFF0F80
:10001000FF0FFF0FFF0FFF0FFF0FFF0FFF0FFF0F70
:020000040030CA
:0A000000ECFFF7FF9FFFFFFFFFFF7B
:00000001FF
