:020000040000FA
:04000000FEEF7FF0A0
:10FEAE0012001200120003011E8F120003C501F58D
:10FEBE0004C502F512006CEC7FF05AEC7FF0FFD710
:10FECE00000EF86E000162EF7FF0BAEC7FF078EC76
:10FEDE007FF085EC7FF0A8EC7FF096EC7FF0CEEF14
:10FEEE007FF0620E0001AD6F700EAE6FAF6BB36B35
:10FEFE00020EB16FB26BB06BAC6B1200040E03014D
:10FF0E00206F1F6B216B0B0E1D6F1C6B000E036A97
:10FF1E00046A5DEC7FF0B696200E1E6F200CD56B3A
:10FF2E00850ED66FD76B100ED86FD96BDA6BDB6B75
:10FF3E00020EDC6F080E00D0DD6FDE6BDF6BD46B54
:10FF4E001200020E0001D56F800ED66F020ED76F13
:10FF5E00100ED86FD96B240EDA6FDB6B020EDC6FCE
:10FF6E00140EA3EF7FF0D69AB490D680000E036ADB
:10FF7E00046A57EC7FF0B990D682000E036A046AC9
:10FF8E0058EC7FF0BD90D684036A046A000CBE6AFA
:10FF9E00BF6AC06A3F0EC66EF00EC76EFD0EC86E0B
:10FFAE000401006B086B106B016B096B010E116F76
:10FFBE00026B0A6B126B370E036FF00E0B6F136929
:10FFCE003F0E046FF00E0C6F1469100E0201616F7C
:10FFDE00050E486F010E126F0401056B066B076B61
:10FFEE000D6B0E6B0F6B156B166B176B120067EFAD
:02FFFE007FF092
:020000040020DA
:10000000FF0FFF0FFF0FFF0FFF0FFF0FFF0FFF0F80
:10001000FF0FFF0FFF0FFF0FFF0FFF0FFF0FFF0F70
:020000040030CA
:0A000000FCFDFFFF9FFFFFFFFFFF65
:00000001FF
