:04000000FEEF7FF0A0
:10FEBA0012001200120077EC7FF0FFD703C501F59C
:10FECA0004C502F51200000EF86E000160EF7FF023
:10FEDA00620E0001AD6FAF6BB36B020EB16FB06B08
:10FEEA00AC6B12006DEC7FF0C9EC7FF0A2EC7FF0F6
:10FEFA0083EC7FF091EC7FF0B5EF7FF0020ED56FC7
:10FF0A00D76F100ED86FD96B240EDA6FDB6B020E27
:10FF1A00DC6F140EAEEF7FF0040E0301206F1F6B2F
:10FF2A00216B0B0E1D6F1C6B000E036A046A63ECD7
:10FF3A007FF0B696A00E1E6FA00C0001D56BD76B92
:10FF4A00100ED86FD96BDA6BDB6B020EDC6F080E02
:10FF5A0000D0DD6FDE6BDF6BD46B850ED66F850C40
:10FF6A00D69AB490D680000E036A046A5DEC7FF0DC
:10FF7A00B990D682000E036A046A5EEC7FF0BD90E7
:10FF8A00D684036A046A000CBE6ABF6AC06A3F0E5E
:10FF9A00C66EF00EC76EFD0EC86E370E0401006FF6
:10FFAA00F00E086FFC0E106F016B096B010E116FDA
:10FFBA000201876B866B0401026B0A6B126B370EA8
:10FFCA00036FF00E0B6F13693F0E046FF00E0C6F88
:10FFDA001469100E0201616F010E126F0401056BA4
:10FFEA00066B076B0D6B0E6B0F6B156B166B176B36
:06FFFA00120068EF7FF029
:020000040020DA
:10000000FF0FFF0FFF0FFF0FFF0FFF0FFF0FFF0F80
:10001000FF0FFF0FFF0FFF0FFF0FFF0FFF0FFF0F70
:020000040030CA
:0A000000ECFFF7FF9FFFFFFFFFFF7B
:00000001FF
