:020000040000FA
:04000000FEEF7FF0A0
:10FEEC00000179EF7FF07FEC7FF07BEF7FF0FEEF8E
:10FEFC007FF098EC7FF0CFEC7FF08AEC7FF0A6ECF3
:10FF0C007FF0B5EC7FF01200620E0001AD6F000EB9
:10FF1C00AF6F000EB36F020EB16F000EB06F000E1C
:10FF2C00AC6F1200000E0001636F000E646F000EC8
:10FF3C00656F000E666F000E676F000E686F120023
:10FF4C00040E0301206F130E1F6F000E216F0B0E9A
:10FF5C001D6F000E1C6FB696A00E1E6F1200000EC9
:10FF6C000001D56F0A0ED76F100ED86F100ED96F17
:10FF7C00100EDA6F100EDB6F020EDC6F000EDD6FF1
:10FF8C00000EDE6F000EDF6F000ED46F860ED66F84
:10FF9C001200000EBE6E000EBF6E000EC06E3F0E45
:10FFAC00C66EF00EC76EFD0EC86EFC0E0401106F0F
:10FFBC00F00E086F370E006F000E096F000E016F08
:10FFCC00010E116F000E026F000E0A6F000E126F01
:10FFDC00370E036FF00E0B6F13693F0E046FF00EAC
:10FFEC000C6F1469010E0201126F100E486F120093
:04FFFC0076EF7FF02D
:020000040020DA
:10000000FF0FFF0FFF0FFF0FFF0FFF0FFF0FFF0F80
:10001000FF0FFF0FFF0FFF0FFF0FFF0FFF0FFF0F70
:020000040030CA
:0A000000ECFFF7FF9FFFFFFFFFFF7B
:00000001FF
