:020000040000FA
:04000000FEEF7FF0A0
:10FF0A00000188EF7FF0AAEC7FF00300FFD7000121
:10FF1A00636B646B656B666B676B686B1200620E72
:10FF2A000001AD6FAF6BB36B020EB16FB06BAC6B10
:10FF3A001200040E0301206F1F6B216B0B0E1D6F45
:10FF4A001C6BB696A00E1E6FA00C8CEC7FF0D7EC43
:10FF5A007FF094EC7FF0B6EC7FF0C3EC7FF09EEF7D
:10FF6A007FF0020ED56FD76B100ED86FD96BDA6B94
:10FF7A00DB6B020EDC6F080ED0EF7FF0D56B020E42
:10FF8A00D76F100ED86FD96B240EDA6FDB6B020EA7
:10FF9A00DC6F140E00D0DD6FDE6BDF6BD46B850E69
:10FFAA00D66F850CBE6ABF6AC06A3F0EC66EF00E77
:10FFBA00C76EFD0EC86EFC0E0401106FF00E086FBE
:10FFCA00370E006F096B016B010E116F026B0A6B22
:10FFDA00126B370E036FF00E0B6F13693F0E046F2F
:10FFEA00F00E0C6F1469100E0201616F010E126F90
:06FFFA00010C85EF7FF011
:020000040020DA
:10000000FF0FFF0FFF0FFF0FFF0FFF0FFF0FFF0F80
:10001000FF0FFF0FFF0FFF0FFF0FFF0FFF0FFF0F70
:020000040030CA
:0A000000ECFFF7FF9FFFFFFFFFFF7B
:00000001FF
